:020000040800F2
:1000000040410020290200089725000857200008D9
:100010009525000861070008852D000800000000F4
:100020000000000000000000000000009101000836
:100030006307000800000000D5010008E52900085A
:10004000430200084302000843020008430200087C
:100050004302000843020008430200086507000845
:100060006B0700084302000843020008430200082F
:10007000430200084302000843020008430200084C
:10008000430200084302000843020008430200083C
:10009000430200084302000843020008430200082C
:1000A000430200084302000843020008430200081C
:1000B0004302000843020008612A000843020008C6
:1000C00043020008430200084302000843020008FC
:1000D00043020008792D000843020008430200088B
:1000E00043020008430200084302000800F002F83F
:1000F00000F03EF80AA090E8000C82448344AAF184
:100100000107DA4501D100F033F8AFF2090EBAE881
:100110000F0013F0010F18BFFB1A43F0010318473B
:10012000BC5C0000DC5C0000103A24BF78C878C1D9
:10013000FAD8520724BF30C830C144BF04680C60ED
:10014000704700000023002400250026103A28BF35
:1001500078C1FBD8520728BF30C148BF0B60704739
:100160001FB59DE8030000F0C9F91FBD10B510BD13
:1001700000F074FA1146FFF7F3FF02F0D3FE00F02F
:1001800092FA03B4FFF7F2FF03BC00F0C3FA0000D9
:10019000224B19680868B0E8F00F80F30988BFF3B4
:1001A0006F8F4FF0000080F311884EF00D0E7047F6
:1001B0000000000006480068006880F3088862B606
:1001C00061B6BFF34F8FBFF36F8F00DF00BF00BF7B
:1001D00008ED00E0EFF30980BFF36F8F0F4B1A6853
:1001E00020E9F00F106008B54FF0500080F311883F
:1001F000BFF34F8FBFF36F8F04F080F94FF0000013
:1002000080F31188BDE8084019680868B0E8F00F6D
:1002100080F30988BFF36F8F704700BF3C00002058
:10022000EFF3058070470000094880470948004700
:10023000FEE7FEE7FEE7FEE7FEE7FEE7FEE7FEE796
:10024000FEE7FEE704480549054A064B70470000F3
:100250005D2A0008ED000008403B002040410020DE
:10026000403D0020403D002070B5064600F02AF9D0
:10027000056806F10B0020F00704B4429CBF002083
:1002800070BD2B466A68BAB11068A04210D304F161
:10029000080188423CBF5068586007D35168101964
:1002A00041601168091B016058601460101D70BD29
:1002B00013465268002AE7D12146284600F00AF981
:1002C0000028DED170BD70B50446051F00F0FAF8B5
:1002D0000068002C14BF446870BD002C18BFAC42ED
:1002E0003CBF20466468F8D301680A18AA4218BFC8
:1002F000456003D12A680546114401602868411908
:10030000A1421CBF6C6070BD6168696021680844CF
:10031000286070BD10B5431C02E010F8011B71B1DC
:100320008107FAD14FF0013202C88C1A8C4314EACB
:10033000C211F9D0C01A0A0603D0C01E10BDC01ADF
:1003400010BD0A0401D0801E10BD0902FCD0401E61
:1003500010BD032A40F2308010F0030C00F015802D
:1003600011F8013BBCF1020F624498BF11F801CBB8
:1003700000F8013B38BF11F8013BA2F1040298BF1D
:1003800000F801CB38BF00F8013B11F0030300F087
:10039000EB80083AC0F0088051F8043B083A51F865
:1003A00004CBA0E80810F5E7121D5CBF51F8043B30
:1003B00040F8043BAFF30080D20724BF11F8013BA3
:1003C00011F801CB48BF11F8012B24BF00F8013B05
:1003D00000F801CB48BF00F8012B704702F0FF0383
:1003E00043EA032242EA024200F0F2B84FF0000270
:1003F00000B5134694469646203922BFA0E80C501B
:10040000A0E80C50B1F12001BFF4F7AF090728BFF5
:10041000A0E80C5048BF0CC05DF804EB890028BF71
:1004200040F8042B08BF704748BF20F8022B11F09A
:10043000804F18BF00F8012B704700004FF0013CBF
:1004400050F8042B51F8043B9A4221D1A2EB0C0343
:10045000934313EACC1317D150F8042B51F8043B03
:100460009A4215D1A2EB0C03934313EACC130BD1A0
:1004700050F8042B51F8043B9A4209D1A2EB0C032B
:10048000934313EACC13DBD04FF00000704700BF5A
:10049000D01A01BAB1FA81F101F0180122FA01F083
:1004A000CB40C1F12001DBB2C0B2C01A2CFA01F37B
:1004B000D11A914311EAC311E6D1704770477047D2
:1004C0007047000000487047E43A002070477047CA
:1004D0007047704738B504460A4600206946AFF3B6
:1004E0000080002808BF38BD02460099204600F071
:1004F00093F8012038BD012000F0A8B8F8B5AFF39B
:100500000080054600200C46102000BF0646A819B2
:10051000A0420DD9324669460020AFF300800700A3
:1005200008BF00F093F80098A04218BF0546C41910
:10053000FFF7C8FF05600746F01D20F007004619C9
:10054000284600F00AF8B44208BFF8BDA21B3146A5
:100550003868BDE8F84000F05FB800210160C0E9EC
:10056000011070471020704710B5203AC0F00B8082
:10057000B1E81850203AA0E81850B1E81850A0E8A7
:100580001850BFF4F5AF5FEA027C24BFB1E8185001
:10059000A0E8185044BF18C918C0BDE810405FEA71
:1005A000827C24BF51F8043B40F8043B08BF7047ED
:1005B000D20728BF31F8023B48BF11F8012B28BFF2
:1005C00020F8023B48BF00F8012B70474FF00002B3
:1005D0000429C0F0128010F0030C3FF409AFCCF1F5
:1005E000040CBCF1020F18BF00F8012BA8BF20F8C3
:1005F000022BA1EB0C01FFF7FBBE5FEAC17C24BF1D
:1006000000F8012B00F8012B48BF00F8012B7047C0
:1006100000487047DC3A0020034640688C460028BA
:1006200018BF88423CBF03464068F8D31868184496
:10063000884207D00CF1030020F00700001D411A8A
:10064000521A0146081D0A60FFF73DBE10B500F0C2
:1006500039F8BDE8104000F02FB870477546FFF735
:10066000D7FFAE4605006946534620F00700854691
:1006700018B020B5FFF7E6FDBDE820404FF00006BA
:100680004FF000074FF000084FF0000B21F007017A
:10069000AC46ACE8C009ACE8C009ACE8C009ACE8BD
:1006A000C0098D46704710B50446AFF30080204660
:1006B000BDE81040FFF765BD002801D000F02AB862
:1006C0007047000010B5012805D0002103A000F0FC
:1006D00027F8012010BD09A1F8E70000534947524F
:1006E000544D454D3A204F7574206F662068656102
:1006F00070206D656D6F7279000000003A204865CA
:100700006170206D656D6F727920636F72727570A4
:100710007465640001491820ABBEFEE726000200A4
:1007200070B505460C460A2000E06D1C00F011F87B
:1007300035B128780028F8D102E0641C00F009F8EF
:1007400014B120780028F8D1BDE870400A20AFF33A
:10075000008008B569468DF800000320ABBE08BDD7
:10076000FEE77047022000F081B8042000F07EB858
:1007700072B6FEE710B590F821100022022905D0CC
:100780000421816380F82020012010BD01680B68DE
:1007900023F00E030B6001680B6823F001030B606C
:1007A00090F84030C46B012101FA03F3636080F8D4
:1007B000211080F82020104610BD000010B590F8E0
:1007C00021100024022903D00421816301243DE08B
:1007D00001680A6822F00E020A6001680A6822F0C5
:1007E00001020A601A4A0168914201D1012121E007
:1007F000174A1432914201D110211BE0144A2832C9
:10080000914201D1891515E0114A3C32914201D142
:1008100089140FE00E4A5032914202D14FF48031D8
:1008200008E00B4A6432914202D14FF4801101E09A
:100830004FF08071064A083A5160012180F821107A
:10084000002180F82010416B01B18847204610BD7F
:1008500008000240022801D0042803D102480068A1
:1008600002F040BD7047000024000020044910B58C
:100870000A68024202D00860FFF7ECFF10BD0000DA
:10088000140401402DE9F84FDFF8B8910024A9F1D4
:10089000040B23460F2709F1040AABF1040EC9E04B
:1008A0000125A5402A40AA427DD1674ED1F804C057
:1008B000ACEB0608B44532D014DCBCF1030F3AD0DF
:1008C00009DCBCF1000F2AD0BCF1010F1CD0BCF137
:1008D000020F31D11DE0BCF1110F17D0BCF1120F86
:1008E0002AD119E0B8F5881F19D006DCB8F5803F89
:1008F00015D0B8F5801F1FD111E0B8F5001F0ED03C
:10090000B8F5041F18D10AE0CB6815E0CB681B1DB1
:1009100012E0CB6808330FE0CB680C330CE08B6837
:100920002BB1012B4FF0080303D0456104E00423F1
:1009300002E0056100E00023FF2A01D8064601E03D
:1009400000F104064FEA840501D9A5F12005D6F887
:10095000008007FA05FC28EA0C0803FA05F548EAC6
:100960000508C6F800804D68ED0062D5374DAE69C8
:1009700046F00106AE61AD6924F0030605F00105FD
:100980000095334D06EB050CDCF80850A607360F32
:1009900007FA06F825EA0805DFF8B880404503D1D4
:1009A0004FF0000817E044E0DFF8AC80404502D18A
:1009B0004FF001080FE0DFF8A480404502D14FF06E
:1009C000020808E0DFF89880404502D14FF00308A4
:1009D00001E04FF0040808FA06F848EA0508CCF8E8
:1009E00008804D68D9F80060ED024D4601D51643E8
:1009F00000E096432E604D68DAF80060AD0255467F
:100A000001D5164300E096432E604D68DBF8006088
:100A1000AD035D4601D5164300E096432E604D6858
:100A2000DEF80060ED03754601D5164300E09643FD
:100A30002E60641C0D682A46E5407FF431AFBDE8A6
:100A4000F88F00000804014000001110001002405F
:100A50000000014000080140000C0140001001406E
:100A6000001401408068084000D001207047C2682F
:100A700021EA02030A4043EA0241016170470AB1D8
:100A8000016170470904FBE7014880687047000076
:100A90002C00002070B5040025D094F83D000025FE
:100AA00020B984F83C50204600F04EF9242084F808
:100AB0003D002068016821F00101016020680168A3
:100AC00041F4004101602068016821F400410160A7
:100AD00000F0E8FA4D4A6168914201D84C4900E0C3
:100AE0004C49884201D2012070BD4B492368B0FBBC
:100AF000F1F15E6826F03F060E435E606368934244
:100B000006D94FF4967359434FF47A73B1FBF3F15E
:100B10002368491C1E6A26F03F063143196261684A
:100B2000914210D84900401EB0FBF1F2521CC2F3B2
:100B30000B02042A01D2042022E0B0FBF1F0401C99
:100B4000C0F30B001CE0A268F2B301EBC10303EB9E
:100B50000116431EB3FBF6F35B1C43F480431B05F5
:100B600049D092B301EBC10202EB0111401EB0FB70
:100B7000F1F0401CC0F30B0040F4804040F4004012
:100B80002168CA694CF6FF739A431043C861D4E9DF
:100B9000071001432068026822F0C002114301607F
:100BA000D4E9030101432068826848F2FF339A4385
:100BB00011438160D4E9050108432168CA6822F025
:100BC000FF021043C86001E00EE016E020680168F3
:100BD00041F0010101602564202084F83D00256377
:100BE00084F83E50002070BD01EB4106431EB3FB6C
:100BF000F6F35B1CB3E70120C2E701EB4101401EA5
:100C0000B0FBF1F0401CC0F30B00B7E7A086010079
:100C100080841E0000093D0040420F002DE9F84F7E
:100C20001F4690468A460446DDF82890FFF72CFFC1
:100C3000054694F83D0020287FD119230122404920
:100C40002046009501F09AFA002876D194F83C00ED
:100C5000012872D0012084F83C0020680168C9078F
:100C600003D1016841F0010101602068016821F4AD
:100C700000610160212084F83D00102084F83E00CE
:100C800000262664C4F824806785608D20852D4861
:100C9000E0622B464A465146204601F0F5F990B9EC
:100CA000206841698069009036E02A46494620461E
:100CB00001F00AFB50B1206C042804D120680168BF
:100CC00041F4007101600120BDE8F88F606A21687D
:100CD00000780861606A401C6062618D491E618510
:100CE000218D491E89B2218522685369DB435B0748
:100CF0000BD451B100781061606A401C6062608D55
:100D0000401E6085208D401E20852A46494620468B
:100D100001F008FA0028CED1208D0028C5D154F862
:100D20003D0B016841F400710160202004F81E09A8
:100D3000E67766770020C7E7FFE70220C4E70000F8
:100D4000020010000000FFFF10B586B000210091E6
:100D500001910291039100680F4988421AD10F4C0A
:100D6000A06940F00800A061A069694600F0080091
:100D70000490C020009012200190022003900848A7
:100D8000FFF780FDE06940F40010E061E06900F4E5
:100D90000010049006B010BD005400400010024046
:100DA000000C01400248816802781144816070475C
:100DB0002C000020074810B5016841F010010160C7
:100DC000032000F0A7F80F2000F006F800F050F81C
:100DD000002010BD0020024030B505461F4887B0F6
:100DE000C16941F00401C161C06906A900F00400B5
:100DF000009001A800F036F90498B0B100F052F963
:100E000040001749174AB0FBF1F11748491E02602C
:100E1000416040F2E7320021C0E903218160816135
:100E200000F0FFFD040003D015E000F03BF9E8E717
:100E30000D4800F025FE04000DD11E2000F03CF806
:100E4000102D07D2002229461E2000F043F8074843
:100E5000056000E0012407B0204630BD00100240CC
:100E600040420F0000080040C00100203000002078
:100E70000F4808B5816941F001018161816901F084
:100E800001010091C16941F08051C161C069002236
:100E900000F0805000900F21901E00F01BF80548D4
:100EA000416821F0E06141F00071416008BD00003F
:100EB0000010024000000140002809DB00F01F0282
:100EC000012191404009800000F1E020C0F80011AC
:100ED00070470000F0B40E4B1B680C46C3F30223AE
:100EE000C3F10705042D00D90425191D072901D2D6
:100EF000002300E0DB1E012606FA05F1491E214011
:100F000099409E40761E16403143F0BC01F0FABF76
:100F10000CED00E0064900F0070208684FF6FF03F9
:100F2000184040EA0220034A10430860704700005E
:100F30000CED00E00000FA052DE9F0470F46050032
:100F400061D0434E306800F00700B84209D23068E3
:100F500020F0070038433060306800F00700B842E6
:100F600051D128683B4C810712D5400703D56068F2
:100F700040F4E06060602878000703D5606840F4C2
:100F8000605060606068A96820F0F000084360600D
:100F90002878C00728D06868012810D02168022866
:100FA00010D0890700292EDA616821F0030101437E
:100FB0006160FFF769FD804641F288390DE02168E4
:100FC0008903EFE78901EDE7FFF75EFDA0EB08017C
:100FD000494502D90320BDE8F0876068696800F0E0
:100FE0000C00B0EB810FEFD1306800F00700B84281
:100FF0000BD9306820F0070038433060306800F0CB
:101000000700B84201D00120E5E72878400705D560
:101010006068E96820F4E0600843606028780007B1
:1010200006D56068296920F4605040EAC10060601C
:1010300000F058F86168084AC1F30311515CC840D8
:101040000649086006480068FFF7C6FE0020C2E7B0
:101050000020024000100240025500083800002025
:10106000300000200F2202600C4A536803F0030393
:101070004360536803F0F0038360536803F4E06354
:10108000C36052684FF4E06303EAD202026104488D
:10109000006800F007000860704700000010024080
:1010A000002002400448054900684968044AC1F329
:1010B0000221515CC84070473800002000100240F7
:1010C000125500080448054900684968044AC1F3FC
:1010D000C221515CC8407047380000200010024017
:1010E000125500080E4A51680E4801F00C03042BFB
:1010F00011D0082B0FD10C48C1F38343C903C05C46
:101100000AD55168084AC1F34041921E515C054A14
:101110005043B0FBF1F0704704494843704700006A
:101120000010024000127A00F254000800093D004D
:101130002DE9F84F040070D02078C04DC00749D089
:101140006868C0F38100012807D06868C0F3810097
:10115000022809D16868C00306D52868800339D5FC
:1011600060680028E7D035E06068B0F5803F0BD0BC
:1011700010B1B0F5A02F11D0286820F4803028607D
:10118000286820F4802002E0286840F4803028603D
:10119000606890B1FFF778FC06460AE0286840F4E2
:1011A00080202860F0E700BFFFF76EFC801B6428FA
:1011B00073D828688003F7D50CE0FFF765FC064676
:1011C00005E000BFFFF760FC801B6428F0D82868AA
:1011D0008003F7D420789A4E80074FF001094FF032
:1011E000000839D5686810F00C0F07D06868C0F3A4
:1011F0008100022809D16868C00306D428688007E6
:1012000014D52069012808D110E02069B0B1C6F8D2
:101210000090FFF739FC074605E00AE1FFF734FCD0
:10122000C01B0228C4D828688007F7D528686169E0
:1012300020F0F80040EAC10028600DE0C6F8008008
:10124000FFF722FC074604E0FFF71EFCC01B022844
:1012500023D828688007F7D4207800072CD5794850
:10126000A169D9B1C0F80090FFF70EFC074604E071
:10127000FFF70AFCC01B02280FD8686A8007F7D561
:1012800071484FF4FA510068B0FBF1F0009000BFD4
:101290000098411E0091FAD20EE080E0C0F8008074
:1012A000FFF7F2FB074604E0FFF7EEFBC01B022846
:1012B00075D8686A8007F7D42078400760D5E86958
:1012C0000027C00008D4E86940F08050E861E86970
:1012D000012700F0805000905C480168C90513D4D4
:1012E0000168834641F480710160FFF7CDFB8246BF
:1012F00006E000BFFFF7C8FBA0EB0A0064284ED849
:10130000DBF80000C005F5D5E06801280AD008B177
:10131000052813D0286A20F001002862286A20F0EE
:10132000040002E0286A40F001002862E06841F20F
:10133000883B98B1FFF7A8FB82460BE0286A40F093
:1013400004002862EEE700BFFFF79EFBA0EB0A0156
:1013500059455AD8286A8007F6D50CE0FFF794FB68
:10136000824605E0FFF790FBA0EB0A0159454CD8F7
:10137000286A8007F6D41FB1E86920F08050E86140
:10138000E06988B36968C1F38101022944D0022869
:10139000C6F8608004D0FFF777FB044638E034E0FD
:1013A000FFF772FB074604E0FFF76EFBC01B022845
:1013B0002BD828688001F7D4206AB0F5803F05D18A
:1013C0006868A16820F4003008436860D4E9080127
:1013D0000843696821F4741108436860C6F8609096
:1013E000FFF752FB044606E025E000BFFFF74CFB89
:1013F000001B022809D828688001F7D51BE000BF30
:10140000FFF742FB001B022802D90320BDE8F88F3A
:1014100028688001F4D40EE00128F7D06868226AB9
:1014200000F48031914204D1616A00F47010884266
:1014300001D00120EAE70020E8E7000000100240A8
:101440000000424280044242380000200070004008
:1014500070B5040009D0606A002540B1256165615E
:10146000A56294F8510040B10CE0012070BD6068A5
:10147000B0F5827FF4D0E561F2E784F85050204661
:1014800000F040F8022084F851002068016821F043
:1014900040010160A088218900F4827001F40441B8
:1014A0000843A18901F400610843217C01F0020195
:1014B0000843217D01F001010843218B01F40071F3
:1014C0000843217F01F03801084394F8201001F00F
:1014D00080010843218D01F4005108432168086010
:1014E000A069042101EA1040216848602068C169B0
:1014F00021F40061C1616565012084F8510000207C
:1015000070BD000030B585B00024009401940294B1
:10151000039400681449884223D11448816941F436
:1015200080518161816901F480510491816941F0A8
:101530000401816180690E4D00F004000490A02038
:101540000090022001900320039069462846FFF78F
:1015500099F94020CDE90004694628460294FFF736
:1015600091F905B030BD000000300140001002408C
:10157000000801402DE9F84F044690F851001D463F
:1015800016460F46012838D160684FF00408B0F5C0
:10159000827F01D1A06830B3FFF776FA8246002F30
:1015A00075D0002E73D094F85000012825D04FF04C
:1015B000010984F8509084F851804FF00008C4F875
:1015C0005480A763A687E687C4F83080A4F83480E7
:1015D000A4F83680C4F84080C4F84480A068B0F510
:1015E000004F0CD015E084F85180009313460A4652
:1015F000204600F01CF9BDE8F88F0220FBE72068C8
:10160000016821F0400101602068016821F48041F7
:10161000016020680168490603D4016841F0400177
:101620000160E068C0B134E020688168C90709D072
:10163000007BA16B0870A06B401CA063E08F401E74
:10164000E08709E0FFF720FAA0EB0A00A84202D3E6
:10165000681C01D032E085B3E08F0028E4D11BE0A4
:1016600020688168C90709D0C068A16B0880A06B99
:10167000801CA063E08F401EE0870AE0FFF704FAB9
:10168000A0EB0A00A84203D3681C02D016E012E0C7
:101690009DB1E08F0028E3D152462946204601F053
:1016A000FDF808B12020606584F8519084F85080DE
:1016B000606D00289FD001209DE7FFE784F85190DE
:1016C00084F85080032096E72DE9F84F9846164697
:1016D0008A460446FFF7D8F9814694F8510001285C
:1016E0001ED1BAF1000F73D0002E71D094F85000C3
:1016F000012815D0012784F85070032084F8510088
:1017000000256565C4F830A0A686E686A563A58792
:10171000E58765642564A068B0F5004F03D00CE050
:101720000220BDE8F88F2068016821F040010160C7
:101730002068016841F48041016020680168490621
:1017400003D4016841F040010160E068B0F5006F2A
:10175000606803D048B3012E27D047E008B1012EBE
:101760001FD1206B21680088C86006E0206881686E
:10177000890709D5216B0988C160206B801C206313
:10178000E08E401EE0860CE0FFF77EF9A0EB090139
:10179000414503D3B8F1FF3F03D035E0B8F1000F66
:1017A00032D0E08E0028E1D123E0206B2168007860
:1017B000087306E02068816889070AD5216B0978DB
:1017C0000173206B401C2063E08E401EE0860DE01C
:1017D0002BE0FFF759F9A0EB0901414503D3B8F11C
:1017E000FF3F03D010E0B8F1000F0DD0E08E0028CD
:1017F000E0D14A464146204601F07EF808B120205B
:101800006065A06830B109E084F8517084F85050E8
:10181000032086E72068C1688068009084F85170D2
:1018200004F8505F60680028F3D0012079E72DE9C3
:10183000FF4F81B01D46934604464FF001090E9EAE
:10184000FFF722F9074694F851006168012806D095
:10185000B1F5827F3CD1A168C9BB042838D1029878
:10186000002871D0BBF1000FFBD0002DF9D094F807
:10187000500001282CD04FF0010A84F850A094F8B1
:101880005100042802D0052084F851004FF00008D0
:10189000C4F85480C4F838B0E587A587029921635D
:1018A000E586A586C4F84080C4F8448020680168B5
:1018B000490603D4016841F040010160E068B0F5D9
:1018C000006F606808D0F0B3012D49D081E0FFE7D8
:1018D000022005B0BDE8F08F08B1012D39D1206B91
:1018E00021680088C860206B801C2063E08E401E49
:1018F000E0862EE02068816889070FD5E18E69B106
:10190000B9F1010F0AD1216B0988C160206B801CDD
:101910002063E08E401EE0864FF000092068816859
:10192000C9070CD0E18F51B1C068A16B0880A06BD2
:10193000801CA063E08F401EE0874FF00109FFF795
:10194000A3F8C01B01E00BE067E0B04201D3701CBC
:1019500050D1E08E0028CDD1E08F0028CAD13EE0E2
:10196000206B216800780873206B401C2063E08E98
:10197000401EE0862DE02068816889070FD5E18E42
:1019800069B1B9F1010F0AD1216B09780173206B9C
:10199000401C2063E08E401EE0864FF00009206866
:1019A0008168C9070CD0E18F51B1C068A16B087084
:1019B000A06B401CA063E08F401EE0874FF0010940
:1019C000FFF762F8C01BB04202D3701C01D011E0D7
:1019D00086B1E08E0028CED1E08F0028CBD13A46E8
:1019E0003146204600F088FF50B12020606584F821
:1019F000508012E084F851A084F85080032068E7FA
:101A0000A06818B92068C1688068009084F851A067
:101A100084F85080606D0028F1D0012059E77047AC
:101A2000704710B5040003D094F83D0010B107E0F2
:101A3000012010BD002084F83C00204600F01EF874
:101A4000022084F83D00211D206801F00FF80120DC
:101A500084F8460084F83E0084F83F0084F8400093
:101A600084F8410084F8420084F8430084F844007C
:101A700084F8450084F83D00002010BD7047000048
:101A800090F83D10012901D001207047022180F813
:101A90003D100168CA6842F00102CA6000680B4943
:101AA000884208D0B0F1804F05D00949884202D061
:101AB0000849884204D1816801F00701062903D052
:101AC000016841F00101016000207047002C0140D5
:101AD000000400400008004070472DE9F041044632
:101AE0000068C66805694FF00007A90713D5B1075C
:101AF00011D5F91E016101202077206880698007D7
:101B0000204602D0FFF7E8FF04E000F07EF8204610
:101B100000F07CF82777680716D5700714D5216880
:101B20006FF004000861022020772068806910F4BB
:101B3000407F204602D0FFF7CFFF04E000F065F8B9
:101B4000204600F063F82777280715D5300713D50E
:101B500021686FF008000861042020772068C069C0
:101B60008007204602D0FFF7B7FF04E000F04DF8F1
:101B7000204600F04BF82777E80616D5F00614D576
:101B800021686FF010000861082020772068C06984
:101B900010F4407F204602D0FFF79EFF04E000F0E3
:101BA00034F8204600F032F82777E80708D0F0072D
:101BB00006D021686FF001000861204600F028F887
:101BC000280608D5300606D521686FF08000086128
:101BD0002046FFF724FF680608D5700606D5216861
:101BE0006FF040000861204600F01CF8A8060AD5F6
:101BF000B00608D521686FF0200008612046BDE8D6
:101C0000F041FFF70DBFBDE8F0817047704700005D
:101C100000680349884201D1FFF7C4B8704700004B
:101C2000000800407047704770470000F8B5016831
:101C300004460868CA684B6910F00F0F4FF00005A2
:101C400059D003F0010602F49077374365D0C107FD
:101C500005D0D10503D5616C41F0010161644107F4
:101C600005D5D90703D0616C41F002016164810799
:101C700005D5D90703D0616C41F004016164010707
:101C800007D502F02001314303D0616C41F0080117
:101C90006164616C00293AD0800604D5900602D5B3
:101CA000204600F058FF20684069616CC0F3801046
:101CB000090700D460B3204600F026FF2068406981
:101CC000400621D52068143050E8001F21F0400163
:101CD00040E80012002AF5D1E06BA8B16D494163DC
:101CE000E06BFEF76BFD002811D0E06B416B01B09B
:101CF000BDE8F040084783060FD593060DD5204672
:101D0000BDE8F84000F027BF2046FFF78DFFF8BD83
:101D10002046FFF789FF6564F8BD266B2023012E5E
:101D20007CD1C6067AD5D60678D508684868009072
:101D300048694FF00206400640D5E16B08684068EC
:101D40000004000CE8D0A28D8242E5D9E0858869C4
:101D500020282DD020680C3050E8001F21F480711D
:101D600040E80012002AF5D12068143050E8001F26
:101D700021F0010140E80012002AF5D1206814305A
:101D800050E8001F21F0400140E80012002AF5D180
:101D900084F84230256320680C3050E8001F21F0A1
:101DA000100140E80012002AF5D1E06BFEF7E2FCDA
:101DB0006663A08DE18D401A81B22AE0A08DE18D8D
:101DC000401A81B2E08D0028A6D00029A4D0226854
:101DD0000C3252E8000F20F4907042E80007002F08
:101DE000F5D12068143050E8002F22F0010240E8BD
:101DF0000027002FF5D184F84230256320680C308D
:101E000050E8002F22F0100240E80023002BF5D10B
:101E100066632046FFF707FFF8BDFFE705062BD5F1
:101E2000150629D594F841002128F5D1A068B0F510
:101E3000805F01D12069B0B1206A411C2162216814
:101E400000784860E08C401E0004000CE084E3D180
:101E50002068C16821F08001C1602068C16841F03C
:101E60004001C160D8E7206A0088C0F308004860DC
:101E7000206A801C2062E5E74006CDD55006CBD510
:101E8000CA68204622F04002CA6084F8413000F05F
:101E9000E1F8C1E7F92A000870B5040004D094F80D
:101EA0004100002510B106E0012070BD84F84050CB
:101EB000204600F023F8242084F841002068C168FF
:101EC00021F40051C160204600F0A6FE206801699F
:101ED00021F4904101612068416921F02A014161AA
:101EE0002068C16841F40051C1606564202084F815
:101EF000410084F842006563002070BD30B585B0B4
:101F000000240094019402940394006818498842C4
:101F10002CD11848816941F480418161816901F4C3
:101F200080410491816941F0040181618069124D11
:101F300000F0040004904FF4007000900220019023
:101F40000320039069462846FEF79CFC2815CDE93E
:101F50000004694628460294FEF794FC00220521FD
:101F60002520FEF7B7FF2520FEF7A6FF05B030BD00
:101F700000380140001002400008014090F8423053
:101F8000202B01D00220704721B11AB10023036336
:101F900000F09EBE0120704700680449884203D1CA
:101FA0000348006801F09EB9704700000038014006
:101FB000280000202DE9F843044690F84100984697
:101FC00016460D46202802D00220BDE8F88385B1D0
:101FD0007EB100206064212084F84100FEF754FDAA
:101FE000A6848146E684A0682027B0F5805F02D0F1
:101FF00003E00120E9E7206910B12E4600250EE03C
:1020000000260CE08021204600F07DFEA8B9C6B174
:1020100016F8010B21684860E08C401EE084E08CDB
:102020004B464FF00002CDF800800028EAD14FF077
:102030004001204600F067FE40B184F84170032063
:10204000C3E735F8020BC0F30800E3E784F84170FA
:102050000020BAE77047FEE701684A69D24352059B
:102060000FD46FF480624A61002140F8301F2022B3
:1020700042738173026942F004020261017301201C
:102080007047002070470000F8B50446C06A1E463D
:102090000D461746082807D0012805D010F5803FC7
:1020A00002D0206B122804D12068016841F48071AD
:1020B0000160134600224FF001112046009600F007
:1020C0005DF840B120680068C00502D54FF400708B
:1020D00020640320F8BD2069B0F5804F0ED00620A3
:1020E000216800EAD51040F0F000086133463A4616
:1020F0000B49204600F08AF878B902E005F0FE00AE
:1021000000E0E8B221680861054933463A46891F74
:10211000204600F07BF80028DCD00120F8BD00004C
:102120000800010070B516460D4604461EE0204624
:10213000FFF792FF08B1012070BD681C16D0FEF7B2
:10214000A3FC801BA84200D885B920684069C04321
:1021500040070BD5002044F8300F20216173A07395
:10216000216941F0200121612073E4E72068406982
:10217000C0434007DBD4002070BD00002DE9F047CC
:10218000984617460D460446C1F30746DDF82090F1
:102190002AE000BFB8F1FF3F26D0FEF775FCA0EBA8
:1021A0000901414502D8B8F1000F1DD12068012E68
:1021B00016D0806925EA00000004000C12D000202F
:1021C000B84211D1002044F8300F20216173A07370
:1021D000216941F02001216120730120BDE8F087D1
:1021E0004069E7E70120EBE72068012E0AD080690B
:1021F00025EA00000004000C06D00020B842C9D037
:102200000020EBE74069F3E70120F7E72DE9F0470D
:10221000984616460D4604464FF000094FF0200A36
:10222000C1F3074723E020684069C043400515D447
:102230002068016841F40071016021686FF48060DA
:102240004861C4F8309084F83DA084F83E90216C39
:1022500041F00401216484F83C9021E0701C06D018
:10226000FEF712FCA0EB0800B04203D816B1012F14
:102270001FD021E02068012F15D0806925EA0000D9
:102280000004000C18D000BF44F8309F84F80DA063
:1022900084F80E90216941F02001216184F80C90AE
:1022A0000120BDE8F087406925EA00000004000C29
:1022B000EAD12068406901E02068806925EA0000D1
:1022C0000004000CAFD1ECE770B516460D4604468D
:1022D0001EE02046FFF7C0FE08B1012070BD681C5B
:1022E00016D0FEF7D1FB801BA84200D885B9206824
:1022F0004069C04300060BD5002044F8300F202170
:102300006173A073216941F0200121612073E4E72A
:1023100020684069C0430006DBD4002070BD000087
:1023200010B5254800F00FFF244C234A00212062FD
:102330001032012000F08AFF1F4A60622032002123
:102340000A2000F083FF1C4AA062303A01211020CD
:1023500000F070FE184AA061183A0221102000F027
:1023600069FEE061164A0021164800F0E7FF144AB2
:10237000206024320021144800F0E0FF104A606021
:1023800048320021114800F0D9FF0D4AA0606C329C
:1023900000210F4800F0D2FF074AE060783A0021A0
:1023A0000C4800F0CBFF044A2061543A00210A484F
:1023B00000F0C4FF606110BDC054000800000020A0
:1023C000B8530008E13C0008613D0008D13E000818
:1023D000853E0008E53F0008B13E0008F0B585B035
:1023E000002437480094019402940394816941F0D9
:1023F00010018161816901F010010491816941F04E
:1024000020018161816901F020010491816941F01D
:1024100004018161816901F004010491816941F045
:10242000080181618069012200F00800254D5603F2
:10243000049031462846FEF722FB234F002240F647
:1024400008013846FEF71BFB012210213846FEF733
:1024500016FB1120CDE900600226CDE9024669464F
:102460002846FEF70FFA0620009018480125CDE90E
:10247000010569463846FEF705FA40F61800CDE931
:102480000005CDE9024669463846FEF7FBF9CDE97D
:10249000005469460E480295FEF7F4F90022052122
:1024A0000720FEF717FD0720FEF706FD0022052195
:1024B0000820FEF70FFD0820FEF7FEFC05B0F0BD7A
:1024C00000100240001001400008014000002110EF
:1024D000000C01400D4810B50B4901600C494160EA
:1024E00000214FF480428160C0E9031241618161A3
:1024F000C1610162FEF7CEFA002803D0BDE81040AA
:10250000FEF736B910BD000000540040CC0000209A
:10251000801A0600104810B50E4901604FF4827110
:10252000416000218160C1604FF400720161C0E927
:1025300005123022C0E90721416281620A21C1628D
:10254000FEF786FF002803D0BDE81040FEF710B963
:1025500010BD000000300140200100200C4810B5E3
:102560000A4901604FF4E1314160002181600C2291
:10257000C160C0E904128161C161FFF78DFC0028D0
:1025800003D0BDE81040FEF7F3B810BD003801409D
:1025900078010020FEE7FEE710B50021074C0A464F
:1025A000002004EBC1131A54401CC0B28028FAD397
:1025B000491CC9B20829F3D310BD0000DC36002045
:1025C000F0B57F282AD83F2928D88418802C02D932
:1025D000C0F18002D2B2CC18402C02D9C1F1400324
:1025E000DBB20126DFF838E087180B4414E001F075
:1025F000070206FA02F5CA0804460EEBC21207E00B
:1026000012F804C02CEA050C02F804C0641CE4B201
:10261000A742F5D8491CC9B28B42E8D8F0BD0000EA
:10262000DC36002000204FF47A720021491C9142D0
:10263000FCD3401C9042F8D3704710B5FFF7F2FF6F
:10264000AE2000F0F9F8D52000F0F6F8802000F078
:10265000F3F8A82000F0F0F83F2000F0EDF8D320C8
:1026600000F0EAF8002000F0E7F8402000F0E4F87D
:10267000A12000F0E1F8C82000F0DEF8DA2000F038
:10268000DBF8122000F0D8F8812000F0D5F8CF2038
:1026900000F0D2F8D92000F0CFF8F12000F0CCF80B
:1026A000DB2000F0C9F8302000F0C6F8A42000F0CC
:1026B000C3F8A62000F0C0F88D2000F0BDF814206B
:1026C00000F0BAF8AF2000F0B7F8FFF765FFBDE8FB
:1026D000104000F09DB810B50C4640F0B00000F07E
:1026E000ABF8102040EA141000F0A6F804F00F0038
:1026F000BDE8104000F0A0B808B5082B0DD0062B9F
:102700000AD10A4B02EB420203EB4202C03A0092AA
:102710000823062200F00EF808BD054B03EB021259
:10272000A2F50072102300920822F3E70A5B00086A
:102730001A5500082DE9FC4F1F4615460C46064663
:102740007F284AD83F2C48D8FFF73AFF781EC11798
:10275000002300EB51700121DFF884B004F0070979
:1027600001EBE00737E0002031E031187F2930D855
:1027700003EBD40ABAF1070F2FD80BEBCA1E03FBE9
:1027800005F21EF801C00192DDF82C808044CDF8DE
:10279000008012F8082002FA09F24CEA020C0AF151
:1027A00001020EF801C0072A0FD80EEB0108DDE97F
:1027B00000C198F8802011F80CC0C9F108012CFA6A
:1027C00001FC42EA0C0288F88020401CC0B2A842FA
:1027D000CBD35B1CDBB29F42C5DCBDE8FC8F0000A5
:1027E000DC3600202DE9F0411E4615468846074696
:1027F000002408E004FB0670C0B233464146FFF7F0
:102800007BFF641CE4B22A5D002AF3D1BDE8F081AD
:1028100070B5084D002400212046FFF75CFF05EB52
:10282000C410802100F018F8641CE4B2082CF2D324
:1028300070BD0000DC3600201CB5002101918DF830
:1028400005000A200090022301AA78210148FEF722
:10285000E5F91CBDCC000020F8B506460C46481C26
:10286000FDF702FD054640202870002004E0315CA1
:102870002A18401C5170C0B2A042F8D30A20009020
:10288000631C2A4678210448FEF7C8F92846BDE8AB
:10289000F840FDF718BD0000CC000020F8B5044654
:1028A00040684FF48273984217D1A0684FF4806556
:1028B000B0F5004F01D0A8420FD12068066826F07D
:1028C000400606606068984207D1A068A84204D11B
:1028D00000920B460022012103E000920B460022E9
:1028E0008021204600F022F8002804D0606D40F0DE
:1028F000200060650320F8BDF8B515460E460B466E
:10290000009204460122022100F010F840B933463B
:10291000002280212046009500F008F8002804D00D
:10292000606D40F0200060650320F8BD2DE9F8439C
:102930001E46914688460446089DFEF7A5F8401BB2
:10294000351AFEF7A1F8074625480068C0F3CB30DA
:10295000684338E0701C37D0FEF796F8C01BA842D9
:1029600003D215B1009860B32CE02068416821F0D3
:10297000E00141606068B0F5827F0BD1A068B0F5DE
:10298000004F02D0B0F5806F04D12068016821F0BB
:1029900040010160A06AB0F5005F09D120680168BC
:1029A00021F4005101602068016841F40051016088
:1029B000012084F85100002084F850000320BDE875
:1029C000F8830025401E00902068816838EA0100E5
:1029D00004D000214945BDD10020F0E70121F9E7ED
:1029E0003800002010B54FF0E020006902F0EAFA4C
:1029F000012803D0BDE8104001F006BE10BD30B57F
:102A00008FB028216846FDF7F1FC14210AA8FDF7D4
:102A1000EDFC01210804CDE90010002402940225F8
:102A20000491CDE907504FF4E01009906846FEF795
:102A30007FFB08B172B6FEE70F20CDE90A054FF41F
:102A40008060CDE90C4002210AA80E94FEF774FACA
:102A5000002801D072B6FEE70FB030BD704700000D
:102A60000148FFF73AB80000C0010020F0B5026845
:102A7000194B1A4C1A4D4FF08047984205D0B84276
:102A800003D0A04201D0A84203D122F070064A68C8
:102A90003243984205D0B84203D0A04201D0A842A8
:102AA00003D122F44074CA6822434C6922F08002A8
:102AB000224302608A68C2620A688262984201D137
:102AC00009690163012141610169C90703D00169F5
:102AD00021F001010161F0BD002C01400004004023
:102AE00000080040012202490248FFF747BA0000EF
:102AF000C10000207801002010B5406A0021C18586
:102B0000C184FFF791F810BD01680C3151E8002F26
:102B100022F4907241E80023002BF5D101681431B2
:102B200051E8002F22F0010241E80023002BF5D1EB
:102B3000016B012909D101680C3151E8002F22F005
:102B4000100241E80023002BF5D1202180F842102B
:102B500000210163704708B590F84210222901D086
:102B6000022008BD82684FF480539A4201D1016966
:102B700021B1816A9A421BD04AB10AE00268816A97
:102B80005268C2F308020A80816A891C08E002695F
:102B900072B10268526802F07F020A70816A491CB1
:102BA0008162C18D491E0904090CC18503D01BE057
:102BB00002685268F1E70168CA6822F02002CA6020
:102BC0000168CA6822F48072CA6001684A6922F00A
:102BD00001024A61202180F8421000214163026B0A
:102BE000012A03D0FFF7D8F9002008BD016301686E
:102BF0000C3151E8002F22F0100241E80023002B95
:102C0000F5D101680A68D20602D50A6849680091C0
:102C1000818DFFF708F8E7E770B5044600680169A1
:102C2000E26821F44051114301612169A068084321
:102C3000616908432168CA6841F20C639A43024300
:102C4000CA6020684169A26921F440711143416161
:102C50001E492068884202D1FEF734FA01E0FEF7EF
:102C600021FA00EBC00101EB0012606864218000D2
:102C7000B2FBF0F3B3FBF1F36FF018067343B2FB52
:102C8000F0F5B2FBF0F605EB8305322303EB0515F7
:102C9000B5FBF1F5B6FBF1F605F0F00505EB061511
:102CA000B2FBF0F6B2FBF0F0B0FBF1F06FF01802FF
:102CB000504306EB800003EB0010B0FBF1F02168FD
:102CC00000F00F002844886070BD0000003801400B
:102CD00081628285C28500214164222180F84210F0
:102CE000016921B10168CA6842F48072CA60016852
:102CF0004A6942F001024A610068C16841F020015E
:102D0000C160002070472DE9F843984617460D46EC
:102D10000446089E24E0701C22D0FDF7B5FEA0EB0F
:102D20000800B0421AD8CEB12068C168490717D54B
:102D3000802D15D0402D13D00168C94309070FD449
:102D400001680025406800902046FFF7DDFE08205E
:102D5000606484F840500120BDE8F8830320FBE75D
:102D60002068006835EA000004D00020B842D2D0C4
:102D70000020F1E70120F9E70148FEF757BF000006
:102D800078010020FEE700003EB500F097F8032030
:102D90008DF8000000208DF801008DF802000F4C26
:102DA0008DF80300024610212046FDF768FE4FF023
:102DB000FF352B46042269460948FEF785FC2B4661
:102DC000012269460648FEF7D5FB01221021204664
:102DD000FDF755FE9DF800003EBD000000080140D3
:102DE000200100202DE9FC41324E804606258DF859
:102DF0000050002210213046FDF741FEEF1F3B46F8
:102E0000012269462C48FEF75FFC01221021304662
:102E1000FDF735FE20208DF8000000248DF80140DC
:102E20008DF802408DF80340224610213046FDF710
:102E300026FE3B46042269461F48FEF745FC012258
:102E400010213046FDF71BFE00F038F88DF80050D9
:102E5000002210213046FDF712FE3B460122694652
:102E60001548FEF731FC012210213046FDF707FE20
:102E700002208DF800008DF801408DF802408DF899
:102E800003408DF80480002210213046FDF7F7FD45
:102E90003B46052269460848FEF716FC0122102130
:102EA0003046FDF7ECFD00F009F8052000F04DF884
:102EB000BDE8FC8100080140200100201CB5052070
:102EC0000E4C8DF80000002210212046FDF7D7FDA2
:102ED0006423012269460A48FEF7F6FB64230122B7
:102EE00001A90748FEF746FB012210212046FDF705
:102EF000C6FD9DF80400C007E5D11CBD00080140D7
:102F0000200100200907090E002804DB00F1E02061
:102F100080F80014704700F00F0000F1E02080F806
:102F2000141D7047FDF746FFFFF769FDFFF756FADE
:102F3000FFF714FBFFF7CEFAFFF7ECFA00F01AF8F0
:102F4000FFF7EEF900F028F8FEE710B5EFF3058182
:102F500011B16FF0050403E0002408B101F0D2F9CB
:102F6000204610BDEFF3058008B102F03FB802F033
:102F700037B80000EFF3058010B16FF0050070471F
:102F80000448016811B14FF0FF3070470121016022
:102F9000002070478C00002010B5EFF3058010B1C1
:102FA0006FF0050010BD08480168012902D04FF0FC
:102FB000FF3010BD054A002182F8141D0221016076
:102FC00001F050FA002010BD8C0000200BE000E062
:102FD000F8B51D466FF003026FF002064FF00004D3
:102FE000EFF30583A3B1F0B1E9B1E5B90022009296
:102FF0006A4601F025FE012817D10098B0B10C49AE
:103000004FF080500860BFF34F8FBFF36F8F0DE01C
:1030100048B141B12A4601F077FD012806D025B11B
:103020006FF0010402E0144600E034462046F8BD8B
:1030300004ED00E0F8B514464FF00005EFF305820B
:1030400012BB08B301B3A4B1D4E9023263B1502A70
:103050001AD32269C2B1676900FB01F6B74213D3E4
:10306000009501F05DFB07E072B9226962B96269FF
:1030700052B9002201F033FB050005D00CB12168E4
:1030800000E0002101F0DCF82846F8BDF8B51D4647
:103090006FF003026FF002064FF00004EFF30583B8
:1030A000ABB100B3F9B1F5B90022134600926A46FC
:1030B00001F05EFC012818D10098B8B10C494FF01E
:1030C00080500860BFF34F8FBFF36F8F0EE050B199
:1030D00049B100232A4601F09BFB012806D025B107
:1030E0006FF0010402E0144600E034462046F8BDCB
:1030F00004ED00E02DE9F0410D46014621F001000C
:1031000001F001014FF00004EFF305820AB1A41FA2
:1031100016E048B100296FF001066FF0020729465A
:1031200008D001F097FE07E06FF0030408E035B126
:10313000344605E001F0D2FD0128F8D100E03C461C
:103140002046BDE8F08170B505464FF00004EFF36E
:10315000058050BB0DB1686800E00020C10701D0B8
:10316000012600E0002600071FD46DB1D5E902104A
:1031700021B1502819D31EB1042002E020B114E07F
:10318000012001F09FFA05E00EB1042000E00120CB
:1031900001F08DFA040008D00DB1296800E000218B
:1031A00001F04EF80EB144F00104204670BD70B538
:1031B000014621F0010001F001014FF00004EFF39E
:1031C00005820AB1A41F11E028B16FF0020529B1F0
:1031D00001F07BFC07E06FF0030407E000231A46D0
:1031E000194601F015FB012800D02C46204670BD81
:1031F000F8B50D460024211F4E1C002804D000BF46
:10320000EFF30582A2B10DB10C461BE000216A4626
:10321000009101F015FD012813D1009890B10A49E1
:103220004FF080500860BFF34F8FBFF36F8F09E0FE
:10323000294601F053FD012804D015B16FF00104B7
:1032400000E034462046F8BD04ED00E0F8B5144631
:1032500003460E464FF00005EFF3058098BB93B38D
:103260009E423DD84CB1A0680028E06803D05028A9
:1032700036D3012002E008B132E00020012B05D056
:1032800010B31846A26801F0F2F920E040B1032023
:103290000090002211460120A36801F041FA04E0E9
:1032A00003220021012001F01AFA050018D086B18E
:1032B00000231A46194601F0ABFA012809D0284626
:1032C00000F0D2FF00250BE0184601F0B3F905002D
:1032D00006D00CB1216800E00021284600F0B0FFC4
:1032E0002846F8BD38B50024E51E00280BD000BFE5
:1032F000EFF30581A9B100210091694601F097FB28
:10330000012815D102E06FF0030412E0009880B1AB
:1033100009494FF080500860BFF34F8FBFF36F8FA4
:1033200007E000231A46194601F072FA012800D07E
:103330002C46204638BD000004ED00E02DE9FF4199
:103340004FEA01034FF00005EFF30581039549BBF8
:1033500040B38027182100244AB3166806B13446CA
:1033600096691EB13146761E382E02D21679F607BE
:1033700003D0002004B0BDE8F081566906B1B7085B
:10338000D2F808C0BCF1000F0DD0D5685C2D18D361
:1033900012693AB136B18DE806103A46214601F07D
:1033A000E0FD03900DE0D6685EB912694AB903AA40
:1033B000CDE90012BAB2214601F0A6FD012800D0E5
:1033C00003950398D6E700002DE9F041134C0F4612
:1033D0000546E6682068001D00F058FC681C07D10F
:1033E00037B12168BDE8F0410D48091D00F07ABEF3
:1033F00020683544B5424560216805D2A06BBDE820
:10340000F041091D00F056BE606B091D00F052FE30
:10341000A06A854200D2A562BDE8F0813C00002090
:10342000F80600202DE9F041054600F067FE2D4C1E
:10343000A068401CA06020682B4F10B1606930B3B9
:103440002BE02560A068012827D1002606EB860026
:1034500007EB800000F020FE761C382EF6D32348C0
:1034600000F01AFE2148143000F016FE1F482830E4
:1034700000F012FE1D483C3000F00EFE1B4850309C
:1034800000F00AFE194860631430A06305E020686C
:10349000E96AC06A884200D82560606A401C6062A0
:1034A0006864E86A2169884200D9206100EB8000E5
:1034B00007EB8000291D00F015FE00F03FFE60695B
:1034C00000280CD02068E96AC06A884207D20849FF
:1034D0004FF080500860BFF34F8FBFF36F8FBDE890
:1034E000F08100003C00002048020020A8060020D7
:1034F00004ED00E038B500F001FE104C2068C8B9BA
:103500000F4800F0C9FD0E48143000F0C5FD0C480E
:10351000E060143020610A4B0020F03B009003F182
:10352000500210210A2001F0FBF8206010B105A123
:1035300000F086FEBDE8384000F000BE78000020B4
:10354000FC070020546D72510000000030B4026C82
:103550000B46002A0BD0C1681144C1608468A142A7
:1035600001D30168C16030BC1846FCF7F2BE30BC24
:1035700070472DE9F041856B174604460026026C22
:1035800082B1C7B1E068FCF7E4FEE168206C091A7B
:10359000E1602268914202D2A168081AE060022F1D
:1035A00016D017E02068A8B9A06801F08BFD064688
:1035B0000020A0600EE06068FCF7CBFE216C606824
:1035C00008446060A168884204D32068606001E01C
:1035D00005B16D1E6D1CA5633046BDE8F08110B5C8
:1035E000044690F8590058B101280CD002280FD099
:1035F000502080F31188BFF34F8FBFF36F8FFEE72A
:10360000206B00F0AFFD2046BDE8104000F0AABDE1
:1036100010BD000010484FF42051420706D0C01DD5
:103620000D4920F00700411AC1F520510B4A002333
:103630000144C2E900030839183A21F0070111607A
:103640004B600B600B1AC0E9001393604FF0004011
:103650005360506170470000DC0E0020A80000207D
:10366000144E154CA6F29C474FF08058DFF84C9052
:1036700012E000BF00F042FDF068C568281D00F0B0
:1036800005FBA068401EA0606068401E606000F0FE
:1036900055FD2846FFF7A3FF60680028EAD1386887
:1036A0000128F9D9C9F80080BFF34F8FBFF36F8F9E
:1036B000F2E70000E40600203C00002004ED00E0FA
:1036C000002807D00021816001600B460A46C160D6
:1036D00001F09EB87047000070B51D46049C51B1C2
:1036E000C4F80020C4E90F010121204601F04CF884
:1036F00084F84C5070BD2460F4E700002DE9F05FC1
:103700008846DDE90B941546834691009A460A9E49
:10371000A522206BFCF762FE6FF00301206B01EB2A
:103720008501084420F00707780707D0502080F370
:103730001188BFF34F8FBFF36F8FFEE70025B8F1FD
:10374000000F0FD05FF00000221818F8001082F868
:10375000341018F8001011B1401C1028F4D384F86C
:10376000435001E084F83450382E00D33726E66207
:10377000C4E91365201D00F09AFC04F1180000F064
:1037800096FC2461C6F138006462A061656584F826
:10379000585052465946384600F066FA2060B9F152
:1037A000000F01D0C9F80040BDE8F09F30B51149C5
:1037B00000E011460A688242FBD34B685C188442E1
:1037C00003D1406818444860084643681C18944276
:1037D00009D1084C183C2468A24209D052681A4406
:1037E00042600A6812680260814200D0086030BD01
:1037F0000460F9E7A800002070B5002441600B4D7B
:103800000061914206D8D11A8269914206D2011D07
:10381000286907E09A4203D2994201D3012403E0C8
:10382000011DE86800F046FC204670BD78000020CD
:1038300010B5044600F062FCA06B28B15FF00004F4
:1038400000F07CFC204610BD0124F9E730B589B0BA
:103850003C4D6EE00498002806DADDE90601059A81
:1038600090470498002864DB069C606910B1201D15
:1038700000F00CFA03A800F0D7F8024604980A28D2
:1038800057D2DFE800F00505052D334A05052D3335
:1038900094F8280040F0010084F828000599A069F8
:1038A000059B01442046FFF7A7FF68B3216A204625
:1038B000884794F8280040073BD5002000900598E1
:1038C000A169002342181946204601F041FDD8B9EC
:1038D000502080F31188BFF34F8FBFF36F8FFEE747
:1038E00014F8280F20F00100207022E094F828003E
:1038F00040F0010084F828000598A06128B18118E3
:1039000013462046FFF778FF13E0502080F311881C
:10391000BFF34F8FBFF36F8FFEE794F82800810746
:1039200003D4204600F01EFC03E020F0010084F8E0
:103930002800002204A9286801F0E6F8002889D1AF
:1039400009B030BD780000202DE9FC410F46054646
:1039500000F0CCFD01A800F067F80446019818B10A
:1039600001F064FCBDE8FC81254EAFB13069006810
:10397000D0B30027291B3A46306800F0A1FC01F0C3
:1039800055FC0028EED11F494FF080500860BFF36E
:103990004F8FBFF36F8FE5E7A542EBD801F046FCF0
:1039A000F0682746C068C468201D00F06FF994F8DD
:1039B0002800410719D5A0692B4641193A462046EF
:1039C000FFF71AFFA8B100200346014600902A46DF
:1039D000204601F0BDFC60B9502080F31188BFF390
:1039E0004F8FBFF36F8FFEE707E020F0010084F8F0
:1039F0002800216A20468847B4E70127BAE700007B
:103A00007800002004ED00E00648416B096829B108
:103A1000416BC968C9684968816270474FF0FF31DE
:103A2000FAE700003C00002070B5054601F0D8FA26
:103A3000064E0446B068844203D200F009F8012023
:103A400000E0002028602046B46070BD78000020AF
:103A5000F8B5194D20E0C068C4680668201D00F064
:103A600015F9216A2046884794F82800400713D5A5
:103A7000A0693044B04206D924616060211DE86825
:103A800000F018FB08E00020034601460090324693
:103A9000204601F05DFC38B1E86801680029DAD100
:103AA0002969C5E90310F8BD502080F31188BFF3E0
:103AB0004F8FBFF36F8FFEE7780000200848406803
:103AC000401C4FF0500080F3118804D0BFF34F8F9B
:103AD000BFF36F8FFEE7BFF34F8FBFF36F8FFEE72C
:103AE000B0000020074CE068016841B1C0680021C7
:103AF000D0F80000FFF728FFFFF7A8FEF3E7012149
:103B00000020F7E7780000202DE9F041044600F09E
:103B1000F5FA94F9455004F1240609E0606A48B1C9
:103B2000304601F04BFB08B100F01AFC6D1E6DB27F
:103B3000002DF3DC4FF0FF3684F8456000F0FEFA0C
:103B400000F0DCFA94F9445004F1100709E0206910
:103B500048B1384601F032FB08B100F001FC6D1E9F
:103B60006DB2002DF3DC84F84460BDE8F04100F054
:103B7000E5BA00002DE9F0410546002700F0B6FC4B
:103B8000324E306808B9FFF745FD706905424ED1E5
:103B9000C5B3083568070ED005F00700C0F108006E
:103BA0000544680707D0502080F31188BFF34F8F7A
:103BB000BFF36F8FFEE72DB37068854237D8234877
:103BC000183001460C6801E020460C466168A942A5
:103BD00002D221680029F7D131688C4227D00768CA
:103BE0002168016060680837411B10290FD96019EE
:103BF000420708D0502080F31188BFF34F8FBFF3E6
:103C00006F8FFEE713E041606560FFF7CFFD6168ED
:103C10007068401A7060B268904200D2B0607069FB
:103C200001430020C4E90001F068401CF06001F08D
:103C3000FDFA780707D0502080F31188BFF34F8F2B
:103C4000BFF36F8FFEE73846BDE8F081900000209B
:103C50000449086818B10868026D521C02650868BA
:103C6000704700003C00002010B5031F4FF0807427
:103C70001C601B1F21F001011960191F024B0B6012
:103C8000143940380A6010BDBD3A0008D0E901324D
:103C900001699A60D0E901235A604A68824201D1E1
:103CA00082684A60002202610868401E0860086855
:103CB00070470000034B036003F15C000860802044
:103CC0001060704724080020044B036003F15C007F
:103CD00008604FF48070106070470000800A002078
:103CE0001FB5184D184C4FF0FF3631462868FFF7C6
:103CF0007FFA142000F006FB02212046FCF7B2FEFA
:103D000030B104212046FCF7ADFE0028EDD10120A2
:103D10008DF80C000D4800231A4603A90068FFF730
:103D2000B5F90028E1D00AA207CA8DE80700684665
:103D3000FCF7F0FA82B2642369460848FEF73AF9C4
:103D4000D3E70000240000200008014018000020F4
:103D500051756575652046756C6C0A007801002008
:103D60001FB53A4C374F384EDFF8E4900225A4F1E6
:103D7000080800231A4603A93868FFF729F990B10B
:103D80006078A84227D000BF4FF0FF313068FFF7BE
:103D9000B1F9FEF701FC607878B101284FF0080313
:103DA0000ED02CA20DE09DF80C0020709DF80D00A7
:103DB0006070002188F80010E6E7082328A200E0E0
:103DC00029A200210846FEF70DFDFEF721FD30680F
:103DD000FFF7EDF965782078A0B1012814D002280A
:103DE00018D024A207CA8DE807006846FCF792FAAB
:103DF00082B2642369462248FEF7DCF80A20FFF706
:103E0000A4F8B6E7012200E0002208214846FCF7AA
:103E100036FEF3E7FFF7A6F8D8F80C10401AB0F515
:103E2000FA7FEBD3FFF79EF8C8F80C0098F8000073
:103E300028B1002088F800000028E5D0E2E7012042
:103E4000F8E700001C00002020000020C400002033
:103E50000008014053544D33323A204F4B000000CC
:103E60004C45443A204F4E004C45443A204F46467C
:103E7000000000006C65647461736B5F65727200B2
:103E800078010020FEF7D9FBFEF786FB002108230E
:103E900004A20846FEF7A6FCFEF7BAFC6420FFF772
:103EA00054F8FBE753544D33323A204F4B00000097
:103EB000064D4FF400644FF4FA7621462846FCF78D
:103EC000D6FD3046FFF741F8F7E700000008014053
:103ED00086B0FEF707FE0024334FDFF8D0804FF0A6
:103EE000FF396E46254649463868FFF781F90028B4
:103EF000F9D12E48801F40790D2807D00A2805D017
:103F0000072C3BD23055641CA4B23AE0002C38D0C8
:103F1000355527A16846FCF791FAA8B325A1684654
:103F2000FCF78CFA88B324A16846FCF787FA68B3DB
:103F300022A30DF1080C0FCB8CE80F0002A8FCF7B0
:103F4000E9F982B2642302A92048FEF733F8204839
:103F50006423002215490068FFF798F870B11DA08E
:103F60000DF1080C0FC88CE80F0002A8FCF7D2F97D
:103F700082B2642302A91548FEF71CF800240095BC
:103F80000195FEF7AFFDAEE701E005E006E088F839
:103F9000005088F80150DAE7012000E0022088F89C
:103FA000000088F80100D2E728000020C2000020AD
:103FB000310000003200000033000000496E7661DD
:103FC0006C69645F696E7075740000007801002090
:103FD0001C000020757361727451756575655F65AD
:103FE000727200001FB5234C214E4FF0FF3704F1D1
:103FF00008053B46002269463068FEF7E9FF98BB9A
:1040000008211D48FCF72EFDE0709DF8001011B14D
:1040100001290BD028E0012801D010B104E060781C
:1040200000E0A078FEF7DEFE14A210E0FEF7ACFE82
:1040300020716178884201D1002003E0A178884294
:1040400002D10120287000E0022068700EA201ABAE
:1040500007CA83E8070001A8FCF75CF982B2642371
:1040600001A90C48FDF7A6FF0A20FEF76EFFC0E786
:1040700018000020BC000020000801407361766534
:104080005F73756365737300726376795F737563CD
:10409000657373007801002000F108014FF0FF32D2
:1040A000C0E90112C1600161002101607047002177
:1040B0000161704730B50B685A1C02D000F108024C
:1040C00002E0026904E02246546825689D42FAD95C
:1040D00053684B6099608A60516008610168491CAF
:1040E000016030BD42684A6093688B609368596094
:1040F000916008610168491C01607047502080F39D
:104100001188BFF34F8FBFF36F8F0A494868401C77
:10411000486001280CD10848006810F0FF0F07D054
:10412000502080F31188BFF34F8FBFF36F8FFEE7EE
:1041300070470000B000002004ED00E00849486826
:1041400028B1401E486001D180F31188704750208B
:1041500080F31188BFF34F8FBFF36F8FFEE700002E
:10416000B000002070B500282AD0164DA0F1080438
:1041700060686969084207D1502080F31188BFF355
:104180004F8FBFF36F8FFEE722683AB1502080F364
:104190001188BFF34F8FBFF36F8FFEE788436060D6
:1041A00000F0A4F960686968084468602046FFF779
:1041B000FDFA2869401C2861BDE8704001F036B85E
:1041C00070BD0000900000204FF0E0200021016150
:1041D000816105494FF47A720968B1FBF2F1491E19
:1041E00041610721016170473800002010B5FCF7DC
:1041F00017F8114910280ED300F1E02090F8F003D1
:104200000A78904207D2502080F31188BFF34F8F75
:10421000BFF36F8FFEE709480068896800F4E0602B
:10422000884207D9502080F31188BFF34F8FBFF326
:104230006F8FFEE710BD0000B00000200CED00E025
:1042400010B5084B002200BF53F832401CB1521C7D
:10425000082AF9D310BD43F8321003EBC2014860BD
:1042600010BD00000802002010B504000AD000F0C4
:1042700013F894F8460000280CD12046BDE8104001
:10428000FFF770BF502080F31188BFF34F8FBFF34B
:104290006F8FFEE710BD0000084A002102EBC1034A
:1042A0005B68834206D1002042F8310002EBC10175
:1042B00048607047491C0829F0D370470802002065
:1042C00070B515460E460446FFF718FF94F94410E2
:1042D0000020491C01D184F8440094F94510491C80
:1042E00001D184F84500FFF729FFA06B28B92A46C1
:1042F000314604F1240000F051F82046BDE870403A
:10430000FFF702BC10B5020014D00F48006B38B1A3
:10431000502080F31188BFF34F8FBFF36F8FFEE7FC
:1043200000F0E4F800211046FFF74EF800F07EFFA1
:10433000002807D105494FF080500860BFF34F8F28
:10434000BFF36F8F10BD00003C00002004ED00E0C3
:1043500002490A6A0260C968416070473C00002057
:1043600001490120C86170473C00002010B50C468F
:1043700050B1094909681831FFF79CFE2046BDE895
:1043800010400121FFF720B8502080F31188BFF3BF
:104390004F8FBFF36F8FFEE73C00002070B51446CF
:1043A0000D4668B10A4909681831FFF79BFE0CB148
:1043B0004FF0FF3521462846BDE87040FFF704B8AE
:1043C000502080F31188BFF34F8FBFF36F8FFEE74C
:1043D0003C00002070B504003ED0226DA2B1E06C1C
:1043E000884200D30146E06A884235D0012A33D1A1
:1043F0001A4D2A6894420FD1502080F31188BFF3E0
:104400004F8FBFF36F8FFEE7502080F31188BFF30B
:104410004F8FBFF36F8FFEE7E162A269002A02DBD4
:10442000C1F13801A1610E4E00EB8000616906EB1D
:104430008000814210D1201DFFF728FCE06A296925
:10444000884200D9286100EB800006EB8000211D26
:10445000BDE87040FFF746BE70BD00003C00002084
:104460004802002030B587B00024039405AA04A9AF
:1044700003A80494FFF71EFCDDE903010094CDE9D5
:104480000110002315A11748059A00F06AFD164D8A
:104490000028E8621FD000F02BFF012809D0401C43
:1044A00019D1502080F31188BFF34F8FBFF36F8F66
:1044B000FEE7502080F31188BFF34F8FBFF36F8F5B
:1044C0004FF0FF30A86201206861EC6007B0BDE8E2
:1044D000304000F045B807B030BD000049444C45BD
:1044E00000000000613600083C0000200248016B1B
:1044F000491C0163704700003C000020164810B5BD
:10450000016B11B10121C16110BD0021C1610169BF
:10451000124A01E0B9B1491E01EB810352F8233080
:10452000002BF7D001EB810302EB830202F10804B8
:1045300053685B685360A34201D15B685360DA68DB
:104540000260016110BD502080F31188BFF34F8FCE
:10455000BFF36F8FFEE700003C0000204802002000
:104560001CB5264908780190FF20087008788DF85E
:1045700000009DF800009DF8002000F0F00090423F
:1045800007D0502080F31188BFF34F8FBFF36F8F98
:10459000FEE79DF800001A4C00F050002070072044
:1045A000A06005E09DF8002052008DF80020401E1C
:1045B0009DF800201206F5D4A060032807D05020F3
:1045C00080F31188BFF34F8FBFF36F8FFEE74FF477
:1045D0004070A060019808700A48016841F47001B9
:1045E0000160016841F070410160FFF7EDFD0020BE
:1045F0006060FBF7DFFD00201CBD000000E400E070
:10460000B000002020ED00E010B5502080F31188AC
:10461000BFF34F8FBFF36F8F00F0F0FC18B1044968
:104620004FF080500860002080F3118810BD00001A
:1046300004ED00E010B50C4648B184420FD950207B
:1046400080F31188BFF34F8FBFF36F8FFEE75020C9
:1046500080F31188BFF34F8FBFF36F8FFEE7022205
:10466000002100F03CF8002800D0846310BD38B56C
:104670000C4648B184420FD9502080F31188BFF313
:104680004F8FBFF36F8FFEE7502080F31188BFF389
:104690004F8FBFF36F8FFEE7022113460022009178
:1046A000114600F03DF8002800D0846338BD10B5F5
:1046B00002460021012000F012F80446FFF700F83E
:1046C000204610BD38B50B4600220090114601204F
:1046D00000F026F80446FEF7F3FF204638BDF8B593
:1046E00017460E46050013D005FB06F05030FFF7C5
:1046F00041FA04000AD0002084F8460004F1500278
:104700003B46314628460094FEF7E6FF2046F8BDBA
:10471000502080F31188BFF34F8FBFF36F8FFEE7F8
:1047200038B5049D18B153B1CAB181B120E0502011
:1047300080F31188BFF34F8FBFF36F8FFEE75020D8
:1047400080F31188BFF34F8FBFF36F8FFEE75020C8
:1047500080F31188BFF34F8FBFF36F8FFEE739B13E
:10476000502080F31188BFF34F8FBFF36F8FFEE7A8
:1047700050241C46012384F846302B460094FEF753
:10478000ABFF204638BD000070B50D46040025D0B3
:10479000FFF7B4FCD4E90F20216802FB0011A160EF
:1047A0000021A163216861600A46D4E90F01401E1F
:1047B00000FB0121E16021464FF0FF3001F8440F7A
:1047C000487004F110008DB1FFF766FC04F124007D
:1047D000FFF762FCFFF7B2FC012070BD502080F3B0
:1047E0001188BFF34F8FBFF36F8FFEE72169002958
:1047F000F0D000F0E3FC0028ECD004494FF08050EA
:104800000860BFF34F8FBFF36F8FE3E704ED00E065
:104810002DE9FF4782B01D468A464FF0000804008C
:1048200003D0BAF1000F08D011E0502080F31188B6
:10483000BFF34F8FBFF36F8FFEE7206C38B150206E
:1048400080F31188BFF34F8FBFF36F8FFEE7022D08
:104850000AD1E06B012807D0502080F31188BFF304
:104860004F8FBFF36F8FFEE700F0ACFB3F4F4FF071
:1048700000094FF0805648B9049838B1502080F3B1
:104880001188BFF34F8FBFF36F8FFEE7FFF736FC42
:10489000A06BE16B884207D3022D05D00498D0B1FC
:1048A000B8F1000F1AD01EE02A4651462046FEF706
:1048B00060FE616A19B104F1240000F07FFC20B1B0
:1048C0003E60BFF34F8FBFF36F8FFFF737FC0120C0
:1048D00006B0BDE8F087FFF731FC22E06846FFF73D
:1048E00037FD4FF00108FFF729FCFFF7FFFDFFF749
:1048F00005FC94F94400401C01D184F8449094F9DB
:104900004500401C01D184F84590FFF717FC04A92D
:10491000684600F0BFFA30B12046FFF7F5F800F026
:1049200085FC0020D4E7FFF7E9FBA06BE16B884230
:1049300013D1FFF703FC04F110000499FFF716FDF3
:104940002046FFF7E1F800F071FC00289ED13E60A0
:10495000BFF34F8FBFF36F8F98E7FFF7EFFB204652
:10496000FFF7D2F800F062FC90E7000004ED00E0F1
:104970002DE9F0471F4690468946040003D0B9F15F
:10498000000F08D011E0502080F31188BFF34F8F43
:10499000BFF36F8FFEE7206C38B1502080F3118891
:1049A000BFF34F8FBFF36F8FFEE7022F0AD1E06B8B
:1049B000012807D0502080F31188BFF34F8FBFF339
:1049C0006F8FFEE7FFF712FC5020EFF3118680F3A4
:1049D0001188BFF34F8FBFF36F8FA06BE16B8842DD
:1049E00006D3022F04D0002086F31188BDE8F0879B
:1049F00094F94550A06B3A4649462046FEF7B9FD6A
:104A0000681C04D06D1C84F845500120ECE7606AF6
:104A10000028FAD004F1240000F0D0FB0028F4D0E4
:104A2000B8F1000FF1D00121C8F80010EDE770B522
:104A30000E46040009D0206C78B1502080F3118814
:104A4000BFF34F8FBFF36F8FFEE7502080F31188C5
:104A5000BFF34F8FBFF36F8FFEE7206848B9A068A0
:104A600038B1502080F31188BFF34F8FBFF36F8FA1
:104A7000FEE7FFF7BBFB5020EFF3118580F31188B1
:104A8000BFF34F8FBFF36F8FA16BE06B884218D9D4
:104A900094F94500491CA163411C04D0401C84F8D2
:104AA000450001200EE0606A0028FAD004F12400DD
:104AB00000F084FB0028F4D0002EF2D001203060FA
:104AC000EFE7002085F3118870BD10B5040009D010
:104AD00000F072FAA168884214D1E068401EE060DC
:104AE00008D00DE0502080F31188BFF34F8FBFF343
:104AF0006F8FFEE700231A4619462046FFF788FE0F
:104B0000012010BD002010BD2DE9F747002683B01D
:104B10008A46040003D0BAF1000F08D011E05020FB
:104B200080F31188BFF34F8FBFF36F8FFEE7206CC8
:104B300038B1502080F31188BFF34F8FBFF36F8FD0
:104B4000FEE700F03FFADFF8F4804FF000094FF085
:104B5000805748B9059838B1502080F31188BFF3C9
:104B60004F8FBFF36F8FFEE7FFF7C8FAA56BC5B194
:104B700051462046FEF7EAFC6D1EA563206950B140
:104B800004F1100000F01AFB28B1C8F80070BFF360
:104B90004F8FBFF36F8FFFF7D1FA012006B0BDE84A
:104BA000F087059808B11EB106E0FFF7C7FA27E0C5
:104BB0006846FFF7CDFB0126FFF7C0FAFFF796FC2A
:104BC000FFF79CFA94F94400401C01D184F844900A
:104BD00094F94500401C01D184F84590FFF7AEFAE6
:104BE00005A9684600F056F9002820460AD0FEF7CD
:104BF0008BFF00F01BFB2046FEF71AFE0028B3D007
:104C00000020CBE7FEF714FE90B104F124000599D3
:104C1000FFF7ACFB2046FEF777FF00F007FB00280C
:104C2000A2D1C8F80070BFF34F8FBFF36F8F9BE71F
:104C30002046FEF769FF00F0F9FA95E704ED00E081
:104C40002DE9F04790468946040003D0B9F1000FE2
:104C500008D011E0502080F31188BFF34F8FBFF3CD
:104C60006F8FFEE7206C38B1502080F31188BFF3BE
:104C70004F8FBFF36F8FFEE7FFF7B8FA5020EFF3C7
:104C8000118680F31188BFF34F8FBFF36F8FA76B2F
:104C9000F7B194F9445049462046FEF757FC7F1E71
:104CA000A763681C04D06D1C84F84450012010E0F8
:104CB00020690028FAD004F1100000F07FFA0028E3
:104CC000F4D0B8F1000FF1D00121C8F80010EDE7E1
:104CD000002086F31188BDE8F08700002DE9F3433A
:104CE000002683B00400354609D0206C78B15020EE
:104CF00080F31188BFF34F8FBFF36F8FFEE7502013
:104D000080F31188BFF34F8FBFF36F8FFEE700F082
:104D100059F9DFF83C814FF000094FF0805748B94E
:104D2000049838B1502080F31188BFF34F8FBFF340
:104D30006F8FFEE7FFF7E2F9A06BC8B1401EA063DA
:104D4000206810B9FEF784FFA060206950B104F11B
:104D5000100000F033FA28B1C8F80070BFF34F8F8D
:104D6000BFF36F8FFFF7EAF9012005B0BDE8F083CC
:104D7000049808B166B10FE03DB1502080F311886E
:104D8000BFF34F8FBFF36F8FFEE7FFF7D7F95DE0FB
:104D90006846FFF7DDFA0126FFF7D0F9FFF7A6FB1B
:104DA000FFF7ACF994F94400401C01D184F8449019
:104DB00094F94500401C01D184F84590FFF7BEF9F5
:104DC00004A9684600F066F80028204612D0FEF7D5
:104DD0009BFE00F02BFA2046FEF72AFD0028A9D002
:104DE0009DB3FFF78BF9606A50B3206B0068C0F188
:104DF000380126E0FEF71CFDE0B1206838B9FFF766
:104E00007DF9A06800F09EF90546FFF797F904F1D7
:104E100024000499FFF7AAFA2046FEF775FE00F079
:104E200005FA002886D1C8F80070BFF34F8FBFF392
:104E30006F8F7FE72046FEF767FE00F0F7F979E70E
:104E40000021A068FFF7C6FA9FE7FFE700208CE784
:104E500004ED00E070B50D46040009D000F0ACF898
:104E6000A16888420CD1E068401CE060012070BD60
:104E7000502080F31188BFF34F8FBFF36F8FFEE791
:104E800029462046FFF72AFF0028F0D0E168491C98
:104E9000E16070BD2DE9F0410C46050011D0C4B1B0
:104EA000FFF72CF9174BDA686E682068911B471CD6
:104EB00017D02F681B6A9F4219D0964217D8012439
:104EC00010E0502080F31188BFF34F8FBFF36F8F36
:104ED000FEE7502080F31188BFF34F8FBFF36F8F31
:104EE000FEE70024FFF72AF92046BDE8F08188425A
:104EF00005D9401A20602846FFF72AFAF1E700207A
:104F00002060DCE73C0000202DE9FF5F8346DDE9FF
:104F10000E87994616468A469000FEF72BFE05003E
:104F20001CD05C20FEF726FE040014D00020256370
:104F300084F85900CDE90240CDE900874B4632465E
:104F400051465846FEF7DAFB2046FEF76BFA012081
:104F500004B0BDE8F09F2846FFF704F94FF0FF309A
:104F6000F6E7F0B585B0DDE90B640A9DA6B1DCB1CA
:104F70005C2700972663022684F85960002604AF58
:104F8000CDE90246CDE90057FEF7B8FB2046FEF713
:104F900049FA049805B0F0BD502080F31188BFF3A2
:104FA0004F8FBFF36F8FFEE7502080F31188BFF360
:104FB0004F8FBFF36F8FFEE7014800687047000016
:104FC0003C0000200548416919B1006B18B1002070
:104FD0007047012070470220704700003C0000200D
:104FE0000148C068704700003C00002010B5FFF782
:104FF000FDF80148C06810BD3C0000202DE9F041DB
:105000002E4C0027206B28B1A069401CA0613846B7
:10501000BDE8F081E668761CE66013D1606B00683D
:1050200038B1502080F31188BFF34F8FBFF36F8FDB
:10503000FEE7606BA16B6163A063206A401C206285
:10504000FEF7E2FCA06ADFF87880864209D3606B45
:105050000068A0B1606BC068C5686868864211D2FC
:10506000A0622068C06A00EB800158F82100012886
:1050700000D90127E0690028C9D00127C7E74FF010
:10508000FF30EDE7281DFEF701FEA86A18B105F113
:105090001800FEF7FBFDE86A2169884200D920610B
:1050A00000EB800108EB8100291DFFF71BF8E86A7F
:1050B0002168C96A8842CAD30127C8E73C0000209A
:1050C0004802002070B504004FF0000133D01B4DA2
:1050D0002868844207D0502080F31188BFF34F8F97
:1050E000BFF36F8FFEE7206D38B1401E2065E36C83
:1050F000E26A9A421FD040B11DE0502080F311882F
:10510000BFF34F8FBFF36F8FFEE7201DFEF7BEFD8D
:10511000E06CE062C0F13800A061E06A2969884271
:1051200000D92861064900EB800001EB8000211DB9
:10513000FEF7D8FF0121084670BD00003C000020AA
:105140004802002070B504004FF000002BD0194D2C
:10515000E16A2A68D26A914226D2A069002804DB5B
:105160002868C06AC0F13800A061134E01EB8101CC
:10517000606906EB8101884211D1201DFEF786FD92
:105180002868C06AE0622969884200D9286100EB7A
:10519000800006EB8000211DFEF7A4FF02E02868D6
:1051A000C06AE062012070BDE16C2A68D26A914257
:1051B000F8D370BD3C0000204802002070B5C068E4
:1051C000C46854B104F118000646FEF75FFD144DA3
:1051D000286B50B13146134815E0502080F31188F8
:1051E000BFF34F8FBFF36F8FFEE7201DFEF74EFD1D
:1051F000E06A2969884200D928610B4900EB8000E8
:1052000001EB8000211DFEF76DFFE06A2968C96A85
:10521000884202D90120E86170BD002070BD000005
:105220003C000020D0060020480200202DE9F04775
:105230002C4D00242746286B38B1FEF75FFF286B02
:10524000401E2863286B40B146E0502080F311884F
:10525000BFF34F8FBFF36F8FFEE7A968224E012087
:10526000D1B3A6F5916980463068E0B1F068C468B2
:1052700004F11800FEF70AFD201DFEF707FDE06AA5
:105280002969884200D9286100EB800109EB81007F
:10529000211DFEF727FFE06A2968C96A8842E3D327
:1052A000C5F81C80E0E70CB1FEF7AEFBAC694CB171
:1052B0004FEA0806FFF7A2FE00B1EE61641EF9D1C5
:1052C0000020A861E86938B108490127380708605B
:1052D000BFF34F8FBFF36F8FFEF730FF3846BDE847
:1052E000F08700003C000020D006002004ED00E024
:1052F00010B586B0FEF7FEF8114C2068B8B100205A
:105300000390049005AA04A903A8FEF7DDFCDDE9DB
:10531000032102208DE8070000230AA10B48059A0B
:10532000FFF71FFE606010B106B0012010BD5020D5
:1053300080F31188BFF34F8FBFF36F8FFEE700003C
:1053400078000020546D722053766300E53A00081F
:105350002DE9FF411E46134602000A9D4FF0000052
:1053600016D0144C2768002F0FD0CDE900130292FD
:10537000062917DAFFF726FE02284FF000030FD0A8
:10538000002269462068FFF743FA04B0BDE8F081C7
:10539000502080F31188BFF34F8FBFF36F8FFEE76C
:1053A0002A46EEE70023324669463846FFF7E0FA20
:1053B000EBE70000780000208C5D00080000000092
:1053C00000000000000000000000000000020000DB
:1053D000280000000000000000000000745D0008CC
:1053E00000000000000000000000000000000000BD
:1053F0000002000018000000000000000000000093
:10540000805D0008000000000000000000000000B7
:10541000000000000008000029000000000000005B
:1054200000000000685D00080000000000000000AF
:105430000000000000000000000200001900000051
:1054400000000000000000005C5D0008000000009B
:10545000000000000000000000000000001000003C
:105460001A0000000000000000000000985D000825
:10547000000000000000000000000000000000002C
:105480000002000008000000000000000000000012
:10549000505D000800000000000000000000000057
:1054A0000000000000000000445D00080000000053
:1054B00000000000000000000000000000000000EC
:1054C000CC5D0008000000000000000000000000AB
:1054D000BC5D0008000000000000000000000000AB
:1054E000A85D0008000000000000000000000000AF
:1054F000010202030405060708090A0B0C0D0E0F32
:105500001010000000000000000001020304060764
:105510000809000000000102030400000000000070
:1055200000000000000000000000000000F8000083
:105530000000000000333000000000160E00160EC0
:105540000000000000000000000040C07840C0786B
:105550004000043F04043F040400007088FC08304D
:105560000000001820FF211E0000F008F000E018E5
:10557000000000211C031E211E0000F0088870009E
:1055800000001E21232419272110000000160E0000
:1055900000000000000000000000000000E018040F
:1055A0000200000000071820400000020418E0007C
:1055B00000000040201807000000404080F08040BC
:1055C00040000202010F01020200000000F0000092
:1055D00000000101011F01010100000000000000A6
:1055E000000000B07000000000000000000000009B
:1055F00000000001010101010101000000000000A4
:10560000000000303000000000000000000080605A
:105610001804006018060100000000E010080810DF
:10562000E000000F102020100F00001010F8000004
:1056300000000020203F202000000070080808889B
:10564000700000302824222130000030088888486B
:1056500030000018202020110E000000C02010F89B
:10566000000000070424243F240000F8088888086C
:1056700008000019212020110E0000E01088881871
:105680000000000F112020110E0000380808C83853
:1056900008000000003F0000000000708808088833
:1056A0007000001C222121221C0000E010080810BC
:1056B000E0000000312222110F00000000C0C000F5
:1056C00000000000003030000000000000C0C000FA
:1056D0000000000080B0700000000000804020103A
:1056E00008000001020408102000404040404040F3
:1056F0004000040404040404040000081020408056
:10570000000000201008040201000070480808088A
:10571000F0000000003036010000C030C828E8105A
:10572000E0000718272423140B000000C038E00015
:105730000000203C23020227382008F8888888705F
:105740000000203F202020110E00C030080808086B
:105750003800071820202010080008F80808081052
:10576000E000203F202020100F0008F88888E8087B
:105770001000203F20202320180008F88888E8081F
:105780001000203F200003000000C0300808083847
:10579000000007182020221E020008F80800000858
:1057A000F808203F210101213F20000808F80808DF
:1057B00000000020203F2020000000000808F8081A
:1057C0000800C08080807F00000008F888C028188A
:1057D0000800203F20012638200008F808000000BB
:1057E0000000203F20202020300008F8F800F8F8C2
:1057F0000800203F003F003F200008F830C00008AC
:10580000F808203F200007183F00E01008080810A3
:10581000E0000F10202020100F0008F808080808EA
:10582000F000203F210101010000E01008080810ED
:10583000E0000F18242438504F0008F88888888822
:105840007000203F2000030C3020007088080808FA
:1058500038000038202121221C00180808F8080808
:1058600018000000203F2000000008F80800000891
:10587000F808001F202020201F000878880000C89A
:105880003808000007380E010000F80800F800088A
:10589000F800033C0700073C030008186880806894
:1058A000180820302C03032C30200838C800C838D2
:1058B00008000000203F2000000010080808C83839
:1058C00008002038262120201800000000FE0202D7
:1058D00002000000007F40404000000C30C000008B
:1058E0000000000000010638C00000020202FE00B5
:1058F0000000004040407F00000000201008040825
:105900001020000000000000000000000000000067
:105910000000808080808080808000020408000079
:105920000000000000000000000000008080808077
:1059300000000019242222223F2008F80080800065
:105940000000003F112020110E0000000080808028
:105950000000000E1120202011000000008080882F
:10596000F800000E112020103F2000008080808071
:105970000000001F222222221300008080F088886D
:1059800088180020203F20200000000080808080B8
:105990008000006B94949493600008F800808080ED
:1059A0000000203F210000203F2000809898000048
:1059B00000000020203F2020000000000080989878
:1059C000000000C08080807F000008F80000808018
:1059D0008000203F24022D302000000808F800003D
:1059E00000000020203F20200000808080808080F8
:1059F0008000203F20003F20003F0080800080800A
:105A0000000000203F2100203F2000008080808097
:105A10000000001F202020201F00808000808000C8
:105A2000000080FFA12020110E0000000080808077
:105A30008000000E112020A0FF80808080008080E8
:105A4000800020203F212000010000008080808015
:105A500080000033242424241900008080E080800A
:105A600000000000001F2020000080800000008057
:105A70008000001F202020103F20808080000080B8
:105A8000808000010E3008060100808000800080C8
:105A900080800F300C030C300F000080800080806D
:105AA00080000020312E0E31200080808000008098
:105AB000808080818E701806010000808080808048
:105AC00080000021302C2221300000000000807C6A
:105AD000020200000000003F404000000000FF0004
